:020000040000fa
:080000000002040000000000f2
:020000040000fa
:100400002f912000007f24000001880000000000e0
:100410000c000700403f20000100200011000700f1
:10042000000020000000e000020032000000020096
:100430000000000090020200000000000040da000e
:100440000000fe004440a900000020000000e00081
:100450000300320000002000a00188004440a800f2
:100460000000060091018800800078000000eb0089
:1004700015003700e280400032a0b4009101ba00bc
:10048000e280400032a0b4009102ba00e280400055
:1004900032a0b4000002eb00472bde00f507b200eb
:1004a000602ce10004003a000059eb008301e900f0
:1004b000fdff3e00040037006128e100010032002a
:1004c0000082eb00040007001101ba000200e00006
:1004d000e8ff3a00000006003159ba008301e90044
:1004e0000c0032002159ba008301e90008003200f3
:1004f0000400e00003003a00e280400032a0b400b3
:10050000f5ff370011d9ba008301e900faff3a007c
:100510008100e800e180400032a0b4000000060045
:020000040000fa
:020000040005f5
:0457f800af7000008e
:020000040000fa
:020000040005f5
:0457fc007f3e0000ec
:020000040000fa
:1000080002040000020400000204000002040000d0
:1000180002040000020400000204000002040000c0
:1000280002040000020400000204000002040000b0
:1000380002040000020400000204000002040000a0
:020000040000fa
:020000040000fa
:100520000a00fa00881f7800001c2100103a880099
:1005300000032000200888000000eb00000f780076
:100540008600070021e3a80005e1a8000000eb00f9
:1005500010079800350037000000eb000008880005
:100560002023a8000000eb00000f780001003700f6
:100570001e0fe800400020009e0f1000fcff34001a
:100580002023a9001e0490008300070000017800ca
:1005900088004400008520000080400002087800a8
:1005a0000000eb00000f780003003700300020004f
:1005b000401988001e0fe800300620009e0f100032
:1005c000faff34002023a8000000eb00000f7800a1
:1005d000010037001e0fe800410020009e8f100030
:1005e000fcff34002023a9001e0090000004e80056
:1005f00069000700000178008800440000852000a1
:100600000080400002087800500020004019880057
:100610000108800080022000808f5000fcff36001f
:100620001e0090000080e800100798001e00900057
:10063000fe0f5000c8ff340005e1a9000000eb00e8
:1006400010079800380037001e0290001e0090002e
:1006500080004000008520000080400010007800ed
:100660006101b800c220dd00008920000080400048
:100670000288be001e019000220798001e00900014
:10068000c200dd0000892000008040001003be0091
:100690008600780040ce20000009b8006030b90024
:1006a000030278000002420040ce200000b8b900ea
:1006b0000002420084017800320798004307980046
:1006c0003e009000ce009000e00f5000e08f5800f8
:1006d00006003d003e019000ce019000f23fb000c8
:1006e0000380b00032079800430798003e01900055
:1006f000ce019000461add004a10de0000007200b4
:10070000ca98de000001be002e009000c200dd008d
:1007100000892000008040000288be001e0090007a
:100720000000e800100798001e009000ff0f500026
:10073000c5ff34000000eb001007980003003700ed
:100740001e0090000000e800100798001e009000b6
:10075000e10f5000faff34007bff37000000fa0081
:100760000000eb00001988000000eb002019880051
:1007700050002000401988002ca3a9002c63a90078
:100780000000eb00801988000000eb0010198800c1
:100790000080fa00000006000000fa0020c3bf003d
:1007a000614060000004e000fcff3200001880009f
:1007b00080488800804880000080fa000000060021
:1007c0000000fa0020c3bf00614060000004e000a8
:1007d000fcff3200101880008048880080488000ac
:0807e0000080fa000000060091
:020000040000fa
:1007e800100900000200000000000000500800008e
:0c07f800c0000000000000000000000035
:020000040000fa
:040804000000fe00f2
:00000001FF
